{
  "abi": [
    {
      "inputs": [
        {
          "components": [
            {
              "internalType": "Suave.BidId",
              "name": "id",
              "type": "bytes16"
            },
            {
              "internalType": "Suave.BidId",
              "name": "salt",
              "type": "bytes16"
            },
            {
              "internalType": "uint64",
              "name": "decryptionCondition",
              "type": "uint64"
            },
            {
              "internalType": "address[]",
              "name": "allowedPeekers",
              "type": "address[]"
            },
            {
              "internalType": "address[]",
              "name": "allowedStores",
              "type": "address[]"
            },
            {
              "internalType": "string",
              "name": "version",
              "type": "string"
            }
          ],
          "internalType": "struct Suave.Bid",
          "name": "_bid",
          "type": "tuple"
        }
      ],
      "stateMutability": "nonpayable",
      "type": "constructor"
    },
    {
      "inputs": [
        {
          "internalType": "address",
          "name": "",
          "type": "address"
        },
        {
          "internalType": "bytes",
          "name": "",
          "type": "bytes"
        }
      ],
      "name": "PeekerReverted",
      "type": "error"
    },
    {
      "anonymous": false,
      "inputs": [
        {
          "indexed": false,
          "internalType": "Suave.BidId",
          "name": "bidId",
          "type": "bytes16"
        },
        {
          "indexed": false,
          "internalType": "uint64",
          "name": "decryptionCondition",
          "type": "uint64"
        },
        {
          "indexed": false,
          "internalType": "address[]",
          "name": "allowedPeekers",
          "type": "address[]"
        }
      ],
      "name": "BidEvent",
      "type": "event"
    },
    {
      "inputs": [],
      "name": "emitBid",
      "outputs": [],
      "stateMutability": "nonpayable",
      "type": "function"
    },
    {
      "inputs": [
        {
          "components": [
            {
              "internalType": "Suave.BidId",
              "name": "id",
              "type": "bytes16"
            },
            {
              "internalType": "Suave.BidId",
              "name": "salt",
              "type": "bytes16"
            },
            {
              "internalType": "uint64",
              "name": "decryptionCondition",
              "type": "uint64"
            },
            {
              "internalType": "address[]",
              "name": "allowedPeekers",
              "type": "address[]"
            },
            {
              "internalType": "address[]",
              "name": "allowedStores",
              "type": "address[]"
            },
            {
              "internalType": "string",
              "name": "version",
              "type": "string"
            }
          ],
          "internalType": "struct Suave.Bid",
          "name": "bid",
          "type": "tuple"
        }
      ],
      "name": "emitBid",
      "outputs": [],
      "stateMutability": "nonpayable",
      "type": "function"
    },
    {
      "inputs": [],
      "name": "fetchBidConfidentialBundleData",
      "outputs": [
        {
          "internalType": "bytes",
          "name": "",
          "type": "bytes"
        }
      ],
      "stateMutability": "nonpayable",
      "type": "function"
    }
  ],
  "bytecode": {
    "object": "0x60806040523480156200001157600080fd5b5060405162000b8438038062000b84833981016040819052620000349162000329565b8051602080830151608092831c600160801b9190931c029190911760009081556040830151600180546001600160401b0319166001600160401b039092169190911790556060830151805184936200009292600292910190620000d2565b5060808201518051620000b0916003840191602090910190620000d2565b5060a08201516004820190620000c79082620004b3565b50905050506200057f565b8280548282559060005260206000209081019282156200012a579160200282015b828111156200012a57825182546001600160a01b0319166001600160a01b03909116178255602090920191600190910190620000f3565b50620001389291506200013c565b5090565b5b808211156200013857600081556001016200013d565b634e487b7160e01b600052604160045260246000fd5b60405160c081016001600160401b03811182821017156200018e576200018e62000153565b60405290565b604051601f8201601f191681016001600160401b0381118282101715620001bf57620001bf62000153565b604052919050565b80516001600160801b031981168114620001e057600080fd5b919050565b80516001600160401b0381168114620001e057600080fd5b600082601f8301126200020f57600080fd5b815160206001600160401b038211156200022d576200022d62000153565b8160051b6200023e82820162000194565b92835284810182019282810190878511156200025957600080fd5b83870192505b84831015620002915782516001600160a01b0381168114620002815760008081fd5b825291830191908301906200025f565b979650505050505050565b600082601f830112620002ae57600080fd5b81516001600160401b03811115620002ca57620002ca62000153565b6020620002e0601f8301601f1916820162000194565b8281528582848701011115620002f557600080fd5b60005b8381101562000315578581018301518282018401528201620002f8565b506000928101909101919091529392505050565b6000602082840312156200033c57600080fd5b81516001600160401b03808211156200035457600080fd5b9083019060c082860312156200036957600080fd5b6200037362000169565b6200037e83620001c7565b81526200038e60208401620001c7565b6020820152620003a160408401620001e5565b6040820152606083015182811115620003b957600080fd5b620003c787828601620001fd565b606083015250608083015182811115620003e057600080fd5b620003ee87828601620001fd565b60808301525060a0830151828111156200040757600080fd5b62000415878286016200029c565b60a08301525095945050505050565b600181811c908216806200043957607f821691505b6020821081036200045a57634e487b7160e01b600052602260045260246000fd5b50919050565b601f821115620004ae57600081815260208120601f850160051c81016020861015620004895750805b601f850160051c820191505b81811015620004aa5782815560010162000495565b5050505b505050565b81516001600160401b03811115620004cf57620004cf62000153565b620004e781620004e0845462000424565b8462000460565b602080601f8311600181146200051f5760008415620005065750858301515b600019600386901b1c1916600185901b178555620004aa565b600085815260208120601f198616915b8281101562000550578886015182559484019460019091019084016200052f565b50858210156200056f5787850151600019600388901b60f8161c191681555b5050505050600190811b01905550565b6105f5806200058f6000396000f3fe608060405234801561001057600080fd5b50600436106100415760003560e01c80631f2a12cc1461004657806392f07a5814610050578063c0b9d2871461006e575b600080fd5b61004e610081565b005b6100586100d6565b60405161006591906102e6565b60405180910390f35b61004e61007c366004610300565b61010f565b6000546001546040517f83481d5b04dea534715acad673a8177a46fc93882760f36bdc16ccac439d504e926100cc9260809190911b9167ffffffffffffffff9091169060029061033b565b60405180910390a1565b60606100e0610175565b6100e957600080fd5b60006100f36101fe565b90508080602001905181019061010991906103c8565b91505090565b7f83481d5b04dea534715acad673a8177a46fc93882760f36bdc16ccac439d504e61013d6020830183610475565b61014d60608401604085016104a8565b61015a60608501856104d2565b60405161016a9493929190610523565b60405180910390a150565b6040516000908190819063420100009082818181855afa9150503d80600081146101bb576040519150601f19603f3d011682016040523d82523d6000602084013e6101c0565b606091505b5091509150816101f4576342010000816040516375fff46760e01b81526004016101eb9291906105a0565b60405180910390fd5b6020015192915050565b604080516000808252602082019283905260609290918291634201000191610225916105cc565b600060405180830381855afa9150503d8060008114610260576040519150601f19603f3d011682016040523d82523d6000602084013e610265565b606091505b509150915081610290576342010001816040516375fff46760e01b81526004016101eb9291906105a0565b92915050565b60005b838110156102b1578181015183820152602001610299565b50506000910152565b600081518084526102d2816020860160208601610296565b601f01601f19169290920160200192915050565b6020815260006102f960208301846102ba565b9392505050565b60006020828403121561031257600080fd5b813567ffffffffffffffff81111561032957600080fd5b820160c081850312156102f957600080fd5b6000606082016001600160801b031986168352602067ffffffffffffffff861681850152606060408501528185548084526080860191508660005282600020935060005b818110156103a45784546001600160a01b03168352600194850194928401920161037f565b509098975050505050505050565b634e487b7160e01b600052604160045260246000fd5b6000602082840312156103da57600080fd5b815167ffffffffffffffff808211156103f257600080fd5b818401915084601f83011261040657600080fd5b815181811115610418576104186103b2565b604051601f8201601f19908116603f01168101908382118183101715610440576104406103b2565b8160405282815287602084870101111561045957600080fd5b61046a836020830160208801610296565b979650505050505050565b60006020828403121561048757600080fd5b81356fffffffffffffffffffffffffffffffff19811681146102f957600080fd5b6000602082840312156104ba57600080fd5b813567ffffffffffffffff811681146102f957600080fd5b6000808335601e198436030181126104e957600080fd5b83018035915067ffffffffffffffff82111561050457600080fd5b6020019150600581901b360382131561051c57600080fd5b9250929050565b6000606082016001600160801b031987168352602067ffffffffffffffff87168185015260606040850152818583526080850190508692506000805b878110156105915784356001600160a01b03811680821461057e578384fd5b845250938301939183019160010161055f565b50909998505050505050505050565b6001600160a01b03831681526040602082018190526000906105c4908301846102ba565b949350505050565b600082516105de818460208701610296565b919091019291505056fea164736f6c6343000813000a"
  }
}