{
  "abi": [
    {
      "inputs": [
        {
          "internalType": "address",
          "name": "",
          "type": "address"
        },
        {
          "internalType": "bytes",
          "name": "",
          "type": "bytes"
        }
      ],
      "name": "PeekerReverted",
      "type": "error"
    },
    {
      "anonymous": false,
      "inputs": [
        {
          "indexed": false,
          "internalType": "Suave.BidId",
          "name": "bidId",
          "type": "bytes16"
        },
        {
          "indexed": false,
          "internalType": "uint64",
          "name": "decryptionCondition",
          "type": "uint64"
        },
        {
          "indexed": false,
          "internalType": "address[]",
          "name": "allowedPeekers",
          "type": "address[]"
        }
      ],
      "name": "BidEvent",
      "type": "event"
    },
    {
      "anonymous": false,
      "inputs": [
        {
          "indexed": false,
          "internalType": "bytes",
          "name": "data",
          "type": "bytes"
        }
      ],
      "name": "DataEvent",
      "type": "event"
    },
    {
      "inputs": [
        {
          "components": [
            {
              "internalType": "Suave.BidId",
              "name": "id",
              "type": "bytes16"
            },
            {
              "internalType": "Suave.BidId",
              "name": "salt",
              "type": "bytes16"
            },
            {
              "internalType": "uint64",
              "name": "decryptionCondition",
              "type": "uint64"
            },
            {
              "internalType": "address[]",
              "name": "allowedPeekers",
              "type": "address[]"
            },
            {
              "internalType": "address[]",
              "name": "allowedStores",
              "type": "address[]"
            },
            {
              "internalType": "string",
              "name": "version",
              "type": "string"
            }
          ],
          "internalType": "struct Suave.Bid",
          "name": "bid",
          "type": "tuple"
        }
      ],
      "name": "emitBid",
      "outputs": [],
      "stateMutability": "nonpayable",
      "type": "function"
    },
    {
      "inputs": [
        {
          "internalType": "Suave.BidId",
          "name": "bidId",
          "type": "bytes16"
        }
      ],
      "name": "fetch",
      "outputs": [
        {
          "internalType": "bytes",
          "name": "",
          "type": "bytes"
        }
      ],
      "stateMutability": "nonpayable",
      "type": "function"
    },
    {
      "inputs": [],
      "name": "fetchBidConfidentialBundleData",
      "outputs": [
        {
          "internalType": "bytes",
          "name": "",
          "type": "bytes"
        }
      ],
      "stateMutability": "nonpayable",
      "type": "function"
    },
    {
      "inputs": [
        {
          "internalType": "bytes",
          "name": "dataIn",
          "type": "bytes"
        }
      ],
      "name": "store",
      "outputs": [
        {
          "internalType": "bytes",
          "name": "",
          "type": "bytes"
        }
      ],
      "stateMutability": "nonpayable",
      "type": "function"
    },
    {
      "inputs": [],
      "name": "storeConfidential",
      "outputs": [
        {
          "internalType": "bytes",
          "name": "",
          "type": "bytes"
        }
      ],
      "stateMutability": "nonpayable",
      "type": "function"
    }
  ],
  "bytecode": {
    "object": "0x608060405234801561001057600080fd5b50610e92806100206000396000f3fe608060405234801561001057600080fd5b50600436106100575760003560e01c806392f07a581461005c578063b374012b1461007a578063c0b9d2871461008d578063eebc2d8f146100a2578063f8026ead146100b5575b600080fd5b6100646100bd565b604051610071919061077e565b60405180910390f35b61006461008836600461082d565b6100f6565b6100a061009b3660046108ac565b610249565b005b6100646100b0366004610908565b6102af565b61006461033c565b60606100c76103b4565b6100d057600080fd5b60006100da610434565b9050808060200190518101906100f09190610955565b91505090565b604080516001808252818301909252606091600091906020808301908036833701905050905030816000815181106101305761013061099d565b60200260200101906001600160a01b031690816001600160a01b0316815250506060600061018060008484604051806040016040528060078152602001660746573743a76360cc1b8152506104cc565b90506101b1816000015160405180604001604052806008815260200167746573746461746160c01b815250876105c9565b7f83481d5b04dea534715acad673a8177a46fc93882760f36bdc16ccac439d504e8160000151826040015183606001516040516101f0939291906109f7565b60405180910390a160405163c0b9d28760e01b90610212908390602001610a32565b60408051601f19818403018152908290526102309291602001610abf565b6040516020818303038152906040529350505050919050565b7f83481d5b04dea534715acad673a8177a46fc93882760f36bdc16ccac439d504e6102776020830183610908565b6102876060840160408501610b05565b6102946060850185610b22565b6040516102a49493929190610b87565b60405180910390a150565b606060006102dd8360405180604001604052806008815260200167746573746461746160c01b81525061067b565b90507f54c3f5d004d097e7a6002e5c2a444925dfd8c8bd972c8827cc2095567cb39a078160405161030e919061077e565b60405180910390a130816040516375fff46760e01b8152600401610333929190610bfc565b60405180910390fd5b60603063b374012b61034c610434565b6040518263ffffffff1660e01b8152600401610368919061077e565b6000604051808303816000875af1158015610387573d6000803e3d6000fd5b505050506040513d6000823e601f3d908101601f191682016040526103af9190810190610955565b905090565b6040516000908190819063420100009082818181855afa9150503d80600081146103fa576040519150601f19603f3d011682016040523d82523d6000602084013e6103ff565b606091505b50915091508161042a576342010000816040516375fff46760e01b8152600401610333929190610bfc565b6020015192915050565b60408051600080825260208201928390526060929091829163420100019161045b91610c20565b600060405180830381855afa9150503d8060008114610496576040519150601f19603f3d011682016040523d82523d6000602084013e61049b565b606091505b5091509150816104c6576342010001816040516375fff46760e01b8152600401610333929190610bfc565b92915050565b6040805160c0810182526000808252602082018190529181019190915260608082018190526080820181905260a082015260008063420300006001600160a01b0316878787876040516020016105259493929190610c3c565b60408051601f198184030181529082905261053f91610c20565b600060405180830381855afa9150503d806000811461057a576040519150601f19603f3d011682016040523d82523d6000602084013e61057f565b606091505b5091509150816105aa576342030000816040516375fff46760e01b8152600401610333929190610bfc565b808060200190518101906105be9190610d3c565b979650505050505050565b60008063420200006001600160a01b03168585856040516020016105ef93929190610e23565b60408051601f198184030181529082905261060991610c20565b600060405180830381855afa9150503d8060008114610644576040519150601f19603f3d011682016040523d82523d6000602084013e610649565b606091505b509150915081610674576342020000816040516375fff46760e01b8152600401610333929190610bfc565b5050505050565b606060008063420200016001600160a01b031685856040516020016106a1929190610e62565b60408051601f19818403018152908290526106bb91610c20565b600060405180830381855afa9150503d80600081146106f6576040519150601f19603f3d011682016040523d82523d6000602084013e6106fb565b606091505b509150915081610726576342020001816040516375fff46760e01b8152600401610333929190610bfc565b949350505050565b60005b83811015610749578181015183820152602001610731565b50506000910152565b6000815180845261076a81602086016020860161072e565b601f01601f19169290920160200192915050565b6020815260006107916020830184610752565b9392505050565b634e487b7160e01b600052604160045260246000fd5b60405160c081016001600160401b03811182821017156107d0576107d0610798565b60405290565b604051601f8201601f191681016001600160401b03811182821017156107fe576107fe610798565b604052919050565b60006001600160401b0382111561081f5761081f610798565b50601f01601f191660200190565b60006020828403121561083f57600080fd5b81356001600160401b0381111561085557600080fd5b8201601f8101841361086657600080fd5b803561087961087482610806565b6107d6565b81815285602083850101111561088e57600080fd5b81602084016020830137600091810160200191909152949350505050565b6000602082840312156108be57600080fd5b81356001600160401b038111156108d457600080fd5b820160c0818503121561079157600080fd5b6fffffffffffffffffffffffffffffffff198116811461090557600080fd5b50565b60006020828403121561091a57600080fd5b8135610791816108e6565b600061093361087484610806565b905082815283838301111561094757600080fd5b61079183602083018461072e565b60006020828403121561096757600080fd5b81516001600160401b0381111561097d57600080fd5b8201601f8101841361098e57600080fd5b61072684825160208401610925565b634e487b7160e01b600052603260045260246000fd5b600081518084526020808501945080840160005b838110156109ec5781516001600160a01b0316875295820195908201906001016109c7565b509495945050505050565b6001600160801b0319841681526001600160401b0383166020820152606060408201526000610a2960608301846109b3565b95945050505050565b6020815260006001600160801b0319808451166020840152806020850151166040840152506001600160401b036040840151166060830152606083015160c06080840152610a8360e08401826109b3565b90506080840151601f19808584030160a0860152610aa183836109b3565b925060a08601519150808584030160c086015250610a298282610752565b6001600160e01b0319831681528151600090610ae281600485016020870161072e565b919091016004019392505050565b6001600160401b038116811461090557600080fd5b600060208284031215610b1757600080fd5b813561079181610af0565b6000808335601e19843603018112610b3957600080fd5b8301803591506001600160401b03821115610b5357600080fd5b6020019150600581901b3603821315610b6b57600080fd5b9250929050565b6001600160a01b038116811461090557600080fd5b6000606082016001600160801b03198716835260206001600160401b03871681850152606060408501528185835260808501905086925060005b86811015610bef578335610bd481610b72565b6001600160a01b031682529282019290820190600101610bc1565b5098975050505050505050565b6001600160a01b038316815260406020820181905260009061072690830184610752565b60008251610c3281846020870161072e565b9190910192915050565b6001600160401b0385168152608060208201526000610c5e60808301866109b3565b8281036040840152610c7081866109b3565b905082810360608401526105be8185610752565b8051610c8f816108e6565b919050565b8051610c8f81610af0565b600082601f830112610cb057600080fd5b815160206001600160401b03821115610ccb57610ccb610798565b8160051b610cda8282016107d6565b9283528481018201928281019087851115610cf457600080fd5b83870192505b848310156105be578251610d0d81610b72565b82529183019190830190610cfa565b600082601f830112610d2d57600080fd5b61079183835160208501610925565b600060208284031215610d4e57600080fd5b81516001600160401b0380821115610d6557600080fd5b9083019060c08286031215610d7957600080fd5b610d816107ae565b610d8a83610c84565b8152610d9860208401610c84565b6020820152610da960408401610c94565b6040820152606083015182811115610dc057600080fd5b610dcc87828601610c9f565b606083015250608083015182811115610de457600080fd5b610df087828601610c9f565b60808301525060a083015182811115610e0857600080fd5b610e1487828601610d1c565b60a08301525095945050505050565b6001600160801b031984168152606060208201526000610e466060830185610752565b8281036040840152610e588185610752565b9695505050505050565b6001600160801b031983168152604060208201526000610726604083018461075256fea164736f6c6343000813000a"
  }
}